:1000000000EE01F0080EF66E0F0EF76E10EE10F017
:100010001BEC00F000EE00F010EE01F014EC00F02C
:10002000000EF86E93EF07F0EE6AE550E150FCE148
:10003000E250FAE112000900F5CFEEFFE550E15081
:08004000FAE1E250F8E11200C0
:100F00000000020304050100E80300006400340847
:100F1000340834083408E02E99EC07F09BEC07F015
:100F20009AEC07F012008CEC07F095EF07F000EF59
:080F300000F012001200120093
:063FF800AEF642F6FFF8F0
:00000001FF
